S010000041544D45474133322E7372656300
S11300000C942A000C9447000C9447000C9447006D
S11300100C9447000C9447000C9447000C94470040
S11300200C9447000C9447000C9447000C94470030
S11300300C9447000C9447000C9447000C94470020
S11300400C9447000C9447000C9447000C94470010
S11300500C94470011241FBECFE5D8E0DEBFCDBF0E
S113006010E0A0E6B0E0E2EEF4E002C005900D92EC
S1130070A236B107D9F720E0A2E6B0E001C01D9294
S1130080A436B207E1F70E9449000C946F020C9465
S11300900000CF93DF93CDB7DEB72B970FB6F8945C
S11300A0DEBF0FBECDBF80E28A8388E08B8384E00D
S11300B08C831D82198283E390E09987888782E08C
S11300C08B8781E08A87CE0108960E945901CE0170
S11300D001960E94F0010E946602682FCE010896E4
S11300E00E94B601F8CF1F93CF93DF93EC01162F34
S11300F040E06A81888199810E94E00114FB4427D1
S113010040F960E183E390E00E94E00115FB44279D
S113011040F960E283E390E00E94E00116FB44278B
S113012040F960E483E390E00E94E001412F441F22
S11301304427441F60E883E390E00E94E00141E02B
S11301406B81888199810E94E00100C000C0000099
S113015040E06B81888199810E94E001412F4170C8
S113016060E183E390E00E94E00111FB442740F941
S113017060E283E390E00E94E00112FB442740F92F
S113018060E483E390E00E94E00113FB442740F91C
S113019060E883E390E00E94E00141E06B818881A4
S11301A099810E94E00100C000C0000040E06B8122
S11301B0888199810E94E0018DEE92E00197F1F728
S11301C000C00000DF91CF911F9108951F93CF933A
S11301D0DF93EC01162F41E06A81888199810E94A6
S11301E0E00114FB442740F960E183E390E00E94BE
S11301F0E00115FB442740F960E283E390E00E94AC
S1130200E00116FB442740F960E483E390E00E9498
S1130210E001412F441F4427441F60E883E390E03A
S11302200E94E00141E06B81888199810E94E00194
S113023000C000C0000040E06B81888199810E9469
S1130240E001412F417060E183E390E00E94E0010E
S113025011FB442740F960E283E390E00E94E0014F
S113026012FB442740F960E483E390E00E94E0013C
S113027013FB442740F960E883E390E00E94E00127
S113028041E06B81888199810E94E00100C000C037
S1130290000040E06B81888199810E94E0018DEE2D
S11302A092E00197F1F700C00000DF91CF911F9118
S11302B008950F931F93CF93DF9300D0CDB7DEB78C
S11302C08C01FC018381898381E08A83BE016F5F95
S11302D07F4F808191810E94B801F80182818983D6
S11302E0BE016F5F7F4F808191810E94B80180E1E0
S11302F08983BE016F5F7F4F83E390E00E94B80162
S113030080E28983BE016F5F7F4F83E390E00E94A8
S1130310B80180E48983BE016F5F7F4F83E390E07F
S11303200E94B80180E88983BE016F5F7F4F83E339
S113033090E00E94B80162E0C8010E94730068E284
S1130340C8010E9473006EE0C8010E94730066E059
S1130350C8010E94730061E0C8010E9473000F90FD
S11303600F90DF91CF911F910F9108950C94E600A7
S1130370FB0121812130E1F090F0223079F4FC017D
S11303803181FB01208120952323FC0121832281DB
S1130390FB013081232BFC01228308950895FC0185
S11303A03181FB01208120952323FC0121830895C1
S11303B0FC012181FB013081232BFC012183089561
S11303C0442341F0413029F4FC012281262B22836D
S11303D008950895FC012281609562236283089543
S11303E00F931F93CF93DF9300D000D0CDB7DEB728
S11303F08C01DC0111968C9111979C91892B139699
S11304009C91139712962C911297822B292F23706B
S1130410822B14962C9114972064282BE091600071
S1130420F09161003181892F86958695832B818394
S11304303C91303131F1311111C080E4898381E084
S11304408A83BE016F5F7F4F86E390E02C830E9416
S1130450B801E0916000F09161002C81D8011596FB
S11304608D919C91169790936300809362002083F2
S11304700F900F900F900F90DF91CF911F910F91DC
S1130480089580E2898381E08A83BE016F5F7F4F94
S113049086E390E02C833B830E94B80180E8898343
S11304A0BE016F5F7F4F86E390E00E94B8013B81FD
S11304B03983BE016F5F7F4F86E390E00E94B801ED
S11304C0E0916000F09161002C81C8CFE091600060
S11304D0F0916100818187FFFDCF82810895F894B6
S10504E0FFCF48
S10504E22D00E7
S9030000FC
