S010000041544D45474133322E7372656300
S11300000C942A000C94C8010C94F1010C941A026B
S11300100C9447000C9447000C9447000C94470040
S11300200C9447000C9447000C9447000C94470030
S11300300C9447000C9447000C9447000C94470020
S11300400C9447000C9447000C9447000C94470010
S11300500C94470011241FBECFE5D8E0DEBFCDBF0E
S113006010E0A0E6B0E0E6E2F6E002C005900D92F2
S1130070AC36B107D9F720E0ACE6B0E001C01D9280
S1130080A237B207E1F70E9449000C9411030C94C3
S11300900000CF93DF93CDB7DEB72D970FB6F8945A
S11300A0DEBF0FBECDBF89E390E09987888711E05A
S11300B01B8702E00A87CE0108960E94690183E348
S11300C090E09A83898383E08B831C820D830E8363
S11300D01F83CE0101960E947B021D861C87BE01F0
S11300E0645F7F4F86E390E00E9443020E94040312
S11300F0682FCE0108960E94C60160E0CE010896E2
S11301000E94C601F3CF1F93CF93DF93EC01162F08
S113011040E06A81888199810E946B0214FB442724
S113012040F960E189E390E00E946B0215FB4427EB
S113013040F960E289E390E00E946B0216FB4427D9
S113014040F960E489E390E00E946B02412F441F70
S11301504427441F60E889E390E00E946B0241E079
S11301606B81888199810E946B0200C000C00000ED
S113017040E06B81888199810E946B02412F41701C
S113018060E189E390E00E946B0211FB442740F98F
S113019060E289E390E00E946B0212FB442740F97D
S11301A060E489E390E00E946B0213FB442740F96A
S11301B060E889E390E00E946B0241E06B818881F2
S11301C099810E946B0200C000C0000040E06B8176
S11301D0888199810E946B028DEE92E00197F1F77C
S11301E000C00000DF91CF911F9108951F93CF931A
S11301F0DF93EC01162F41E06A81888199810E9486
S11302006B0214FB442740F960E189E390E00E940B
S11302106B0215FB442740F960E289E390E00E94F9
S11302206B0216FB442740F960E489E390E00E94E6
S11302306B02412F441F4427441F60E889E390E088
S11302400E946B0241E06B81888199810E946B025C
S113025000C000C0000040E06B81888199810E9449
S11302606B02412F417060E189E390E00E946B02D0
S113027011FB442740F960E289E390E00E946B029D
S113028012FB442740F960E489E390E00E946B028A
S113029013FB442740F960E889E390E00E946B0275
S11302A041E06B81888199810E946B0200C000C08B
S11302B0000040E06B81888199810E946B028DEE81
S11302C092E00197F1F700C00000DF91CF911F91F8
S11302D008950F931F93CF93DF9300D0CDB7DEB76C
S11302E08C01FC018381898381E08A83BE016F5F75
S11302F07F4F808191810E944302F801828189832A
S1130300BE016F5F7F4F808191810E94430280E133
S11303108983BE016F5F7F4F89E390E00E944302AF
S113032080E28983BE016F5F7F4F89E390E00E9482
S1130330430280E48983BE016F5F7F4F89E390E0CD
S11303400E94430280E88983BE016F5F7F4F89E387
S113035090E00E94430262E0C8010E94830068E2C8
S1130360C8010E9483006EE0C8010E94830066E019
S1130370C8010E94830061E0C8010E9483000F90BD
S11303800F90DF91CF911F910F9108950C94F60077
S11303901F920F920FB60F9211242F933F934F93F6
S11303A05F936F937F938F939F93AF93BF93EF93D9
S11303B0FF93E0916C00F0916D00309709F009957E
S11303C0FF91EF91BF91AF919F918F917F916F9129
S11303D05F914F913F912F910F900FBE0F901F90FF
S11303E018951F920F920FB60F9211242F933F93DB
S11303F04F935F936F937F938F939F93AF93BF9329
S1130400EF93FF93E0916E00F0916F00309709F045
S11304100995FF91EF91BF91AF919F918F917F913A
S11304206F915F914F913F912F910F900FBE0F905D
S11304301F9018951F920F920FB60F9211242F93AD
S11304403F934F935F936F937F938F939F93AF9358
S1130450BF93EF93FF93E0917000F0917100309798
S113046009F00995FF91EF91BF91AF919F918F9101
S11304707F916F915F914F913F912F910F900FBE9C
S11304800F901F901895FB0121812130E1F090F02D
S1130490223079F4FC013181FB0120812095232352
S11304A0FC0121832281FB013081232BFC01228367
S11304B008950895FC013181FB01208120952323B7
S11304C0FC0121830895FC012181FB013081232B50
S11304D0FC0121830895442341F0413029F4FC01B7
S11304E02281262B228308950895FC0122816095A0
S11304F0622362830895CF93DF93DC01E0916A0065
S1130500F0916B008C918083E0916200F091630024
S113051080818F77808311969C9111979F70808141
S1130520807F892B8083E0916000F091610080815D
S11305308068808312969C9112979370990F8081A2
S1130540897F892B808340916800509169001296BD
S11305509C91129792FB992790F9EA01888190FB6C
S113056082F9888380818068808314969C91149793
S113057096959170808190FB86F9808314968C9176
S113058014978130C1F170F1823079F48091660062
S113059090916700EC0128812D7F288313969C910C
S11305A01397808190FB80F98083808180688083A9
S11305B015969C91159793709295907F80818F7C6E
S11305C0892B808316969C91808190FB83F980838C
S11305D0FA01808188608083808180618083DF91DB
S11305E0CF9108958091660090916700EC01288175
S11305F02D7F2883DACF8091660090916700EC010B
S1130600288122602883D1CFE0916600F0916700B1
S1130610808187FFFDCFE0916400F09165008081C7
S10906200895F894FFCFD9
S10F0626400040002C002B002A0029009A
S9030000FC
